{
  "contractName": "FundContract",
  "abi": [
    {
      "constant": true,
      "inputs": [],
      "name": "count",
      "outputs": [
        {
          "name": "",
          "type": "uint256"
        }
      ],
      "payable": false,
      "stateMutability": "view",
      "type": "function"
    },
    {
      "constant": true,
      "inputs": [],
      "name": "tokenContract",
      "outputs": [
        {
          "name": "",
          "type": "address"
        }
      ],
      "payable": false,
      "stateMutability": "view",
      "type": "function"
    },
    {
      "constant": true,
      "inputs": [],
      "name": "totalInput",
      "outputs": [
        {
          "name": "",
          "type": "uint256"
        }
      ],
      "payable": false,
      "stateMutability": "view",
      "type": "function"
    },
    {
      "constant": true,
      "inputs": [
        {
          "name": "",
          "type": "address"
        }
      ],
      "name": "amountsWithdrew",
      "outputs": [
        {
          "name": "",
          "type": "uint256"
        }
      ],
      "payable": false,
      "stateMutability": "view",
      "type": "function"
    },
    {
      "constant": true,
      "inputs": [
        {
          "name": "",
          "type": "address"
        }
      ],
      "name": "between",
      "outputs": [
        {
          "name": "",
          "type": "bool"
        }
      ],
      "payable": false,
      "stateMutability": "view",
      "type": "function"
    },
    {
      "inputs": [
        {
          "name": "_tokenContract",
          "type": "address"
        },
        {
          "name": "_addresses",
          "type": "address[]"
        }
      ],
      "payable": false,
      "stateMutability": "nonpayable",
      "type": "constructor"
    },
    {
      "payable": true,
      "stateMutability": "payable",
      "type": "fallback"
    },
    {
      "constant": false,
      "inputs": [
        {
          "name": "addr",
          "type": "address"
        },
        {
          "name": "amount",
          "type": "uint256"
        }
      ],
      "name": "transferFunction",
      "outputs": [],
      "payable": false,
      "stateMutability": "nonpayable",
      "type": "function"
    },
    {
      "constant": false,
      "inputs": [],
      "name": "FundWindraw",
      "outputs": [
        {
          "name": "s",
          "type": "bool"
        }
      ],
      "payable": false,
      "stateMutability": "nonpayable",
      "type": "function"
    },
    {
      "constant": true,
      "inputs": [],
      "name": "balance",
      "outputs": [
        {
          "name": "",
          "type": "uint256"
        }
      ],
      "payable": false,
      "stateMutability": "view",
      "type": "function"
    }
  ],
  "bytecode": "0x6060604052341561000f57600080fd5b604051610813380380610813833981016040528080519060200190919080518201919050506000808373ffffffffffffffffffffffffffffffffffffffff166318160ddd6040518163ffffffff167c0100000000000000000000000000000000000000000000000000000000028152600401602060405180830381600087803b151561009a57600080fd5b5af115156100a757600080fd5b505050604051805190506003819055508251600481905550836000806101000a81548173ffffffffffffffffffffffffffffffffffffffff021916908373ffffffffffffffffffffffffffffffffffffffff160217905550600091505b825182101561018c57828281518110151561011b57fe5b9060200190602002015190506001600260008373ffffffffffffffffffffffffffffffffffffffff1673ffffffffffffffffffffffffffffffffffffffff16815260200190815260200160002060006101000a81548160ff0219169083151502179055508180600101925050610104565b505050506106748061019f6000396000f30060606040526004361061008e576000357c0100000000000000000000000000000000000000000000000000000000900463ffffffff16806306661abd146100a057806355a373d6146100c95780639e15bc251461011e578063b1cfd65014610147578063b69ef8a814610174578063cc204cc21461019d578063ebe87ca4146101ea578063f62082861461023b575b34600360008282540192505081905550005b34156100ab57600080fd5b6100b361027d565b6040518082815260200191505060405180910390f35b34156100d457600080fd5b6100dc610283565b604051808273ffffffffffffffffffffffffffffffffffffffff1673ffffffffffffffffffffffffffffffffffffffff16815260200191505060405180910390f35b341561012957600080fd5b6101316102a8565b6040518082815260200191505060405180910390f35b341561015257600080fd5b61015a6102ae565b604051808215151515815260200191505060405180910390f35b341561017f57600080fd5b610187610453565b6040518082815260200191505060405180910390f35b34156101a857600080fd5b6101d4600480803573ffffffffffffffffffffffffffffffffffffffff16906020019091905050610531565b6040518082815260200191505060405180910390f35b34156101f557600080fd5b610221600480803573ffffffffffffffffffffffffffffffffffffffff16906020019091905050610549565b604051808215151515815260200191505060405180910390f35b341561024657600080fd5b61027b600480803573ffffffffffffffffffffffffffffffffffffffff16906020019091908035906020019091905050610569565b005b60045481565b6000809054906101000a900473ffffffffffffffffffffffffffffffffffffffff1681565b60035481565b600080600260003373ffffffffffffffffffffffffffffffffffffffff1673ffffffffffffffffffffffffffffffffffffffff16815260200190815260200160002060009054906101000a900460ff16151561030957600080fd5b610311610453565b90506000811415151561032357600080fd5b80600160003373ffffffffffffffffffffffffffffffffffffffff1673ffffffffffffffffffffffffffffffffffffffff168152602001908152602001600020600082825401925050819055506000809054906101000a900473ffffffffffffffffffffffffffffffffffffffff1673ffffffffffffffffffffffffffffffffffffffff1663da8220a833836040518363ffffffff167c0100000000000000000000000000000000000000000000000000000000028152600401808373ffffffffffffffffffffffffffffffffffffffff1673ffffffffffffffffffffffffffffffffffffffff16815260200182815260200192505050602060405180830381600087803b151561043357600080fd5b5af1151561044057600080fd5b5050506040518051905050600191505090565b600080600080600260003373ffffffffffffffffffffffffffffffffffffffff1673ffffffffffffffffffffffffffffffffffffffff16815260200190815260200160002060009054906101000a900460ff1615156104b5576000935061052b565b6004546003548115156104c457fe5b049250600160003373ffffffffffffffffffffffffffffffffffffffff1673ffffffffffffffffffffffffffffffffffffffff16815260200190815260200160002054915081830390506000811015801561051f5750828111155b151561052757fe5b8093505b50505090565b60016020528060005260406000206000915090505481565b60026020528060005260406000206000915054906101000a900460ff1681565b6000809054906101000a900473ffffffffffffffffffffffffffffffffffffffff1673ffffffffffffffffffffffffffffffffffffffff1663a9059cbb83836040518363ffffffff167c0100000000000000000000000000000000000000000000000000000000028152600401808373ffffffffffffffffffffffffffffffffffffffff1673ffffffffffffffffffffffffffffffffffffffff16815260200182815260200192505050602060405180830381600087803b151561062c57600080fd5b5af1151561063957600080fd5b505050604051805190505050505600a165627a7a723058203c979b62c3feaff556d14b89b87993a0c2776e05d4a210c1c84dac2d0204cb000029",
  "source": "pragma solidity ^0.4.2;\r\n\r\n// Импорт ERC20\r\nimport \"./MyToken.sol\";\r\n\r\ncontract FundContract {\r\n\r\n//Переменная контракта ERC20\r\n  MyToken public tokenContract;\r\n// Мапинг для фиксирования чтобы один участник не мог выводит с фонда больше дозволенного\r\n  mapping(address => uint) public amountsWithdrew;\r\n//Вспомогательный мапинг для записи пользователей, которые могут делить средства из фонда\r\n  mapping(address => bool) public between;\r\n// Общая сумма токенов, внесенных в фонд.\r\n  uint public totalInput;\r\n// Количество кошельков, которые могут делить токены\r\n  uint public count;\r\n\r\n  //Конструктор принимает в параметрах адресс контракта и массив кошельков\r\n  function FundContract(MyToken _tokenContract, address[] _addresses) public {\r\n// Получаем количество токенов из ERC20  контракта\r\n  totalInput = _tokenContract.totalSupply();\r\n// Количество пользователей фонда\r\n  count = _addresses.length;\r\n// Инициализируем адресс контракта ERC20\r\n  tokenContract = _tokenContract;\r\n\r\n// Записываем кошельки пользователей фонда\r\n  for (uint i = 0; i < _addresses.length; i++) {\r\n  address included = _addresses[i];\r\n  between[included] = true;\r\n  }\r\n  }\r\n\r\n//Реализация функции transfer из ERC20\r\n  function transferFunction (address addr, uint amount) public{\r\n  tokenContract.transfer(addr, amount);\r\n  }\r\n\r\n\r\n// Вывод средств из фонда\r\n// Доступно только кошельков инициализированных в контракте\r\n  function FundWindraw() public returns (bool s){\r\n// Только для участников фонда\r\n  require(between[msg.sender]);\r\n\r\n// Получаем сумму из функции баланс\r\n  uint transferring = FundContract.balance();\r\n  require(transferring != 0);\r\n// Записываем что уже был вывод\r\n  amountsWithdrew[msg.sender] += transferring;\r\n// Транзакция\r\n  tokenContract.Fund(msg.sender, transferring);\r\n// В случае успеха возвращем true для тестов\r\n  return true;\r\n  }\r\n\r\n  function balance() constant returns (uint) {\r\n    if (!between[msg.sender]) {\r\n// Функция работает только с теми кто включен в список\r\n// Для остальных возвращаем 0\r\n    return 0;\r\n    }\r\n// Сумма средств доступная каждому из нашего массива кошельков\r\n\r\n    uint share = totalInput / count;\r\n    uint withdrew = amountsWithdrew[msg.sender];\r\n    uint available = share - withdrew;\r\n\r\n    assert(available >= 0 && available <= share);\r\n\r\n    return available;\r\n    }\r\n\r\n// Фолбэк функция\r\n   function() payable {\r\n    totalInput += msg.value;\r\n  }\r\n}\r\n",
  "sourcePath": "C:\\Users\\Ruslan\\Desktop\\TestTask\\contracts\\FundContract.sol",
  "compiler": {
    "name": "solc",
    "version": "0.4.21+commit.dfe3193c.Emscripten.clang"
  },
  "schemaVersion": "2.0.0",
  "updatedAt": "2018-04-18T14:53:15.818Z"
}